{
  "_format": "hh-sol-artifact-1",
  "contractName": "FHEQuiz",
  "sourceName": "contracts/FHEQuiz.sol",
  "abi": [
    {
      "inputs": [],
      "stateMutability": "nonpayable",
      "type": "constructor"
    },
    {
      "inputs": [],
      "name": "correctEncrypted",
      "outputs": [
        {
          "internalType": "bytes32",
          "name": "",
          "type": "bytes32"
        }
      ],
      "stateMutability": "view",
      "type": "function"
    },
    {
      "inputs": [],
      "name": "getResult",
      "outputs": [
        {
          "internalType": "ebool",
          "name": "",
          "type": "bytes32"
        }
      ],
      "stateMutability": "view",
      "type": "function"
    },
    {
      "inputs": [],
      "name": "owner",
      "outputs": [
        {
          "internalType": "address",
          "name": "",
          "type": "address"
        }
      ],
      "stateMutability": "view",
      "type": "function"
    },
    {
      "inputs": [],
      "name": "resetAnswer",
      "outputs": [],
      "stateMutability": "nonpayable",
      "type": "function"
    },
    {
      "inputs": [],
      "name": "resetCorrect",
      "outputs": [],
      "stateMutability": "nonpayable",
      "type": "function"
    },
    {
      "inputs": [
        {
          "internalType": "address",
          "name": "",
          "type": "address"
        }
      ],
      "name": "result",
      "outputs": [
        {
          "internalType": "ebool",
          "name": "",
          "type": "bytes32"
        }
      ],
      "stateMutability": "view",
      "type": "function"
    },
    {
      "inputs": [
        {
          "internalType": "bytes",
          "name": "encrypted",
          "type": "bytes"
        }
      ],
      "name": "setCorrectAnswer",
      "outputs": [],
      "stateMutability": "nonpayable",
      "type": "function"
    },
    {
      "inputs": [
        {
          "internalType": "bytes",
          "name": "encrypted",
          "type": "bytes"
        }
      ],
      "name": "submitAnswer",
      "outputs": [],
      "stateMutability": "nonpayable",
      "type": "function"
    },
    {
      "inputs": [
        {
          "internalType": "address",
          "name": "",
          "type": "address"
        }
      ],
      "name": "submitted",
      "outputs": [
        {
          "internalType": "bool",
          "name": "",
          "type": "bool"
        }
      ],
      "stateMutability": "view",
      "type": "function"
    }
  ],
  "bytecode": "0x608060405234801561000f575f80fd5b50600380546001600160a01b031916331790556104618061002f5f395ff3fe608060405234801561000f575f80fd5b506004361061009f575f3560e01c806377302b0b11610072578063c5bb37e211610058578063c5bb37e214610156578063de29278914610188578063f087978b14610190575f80fd5b806377302b0b146100f95780638da5cb5b1461012b575f80fd5b806301424537146100a35780631786a06e146100cb5780632d3184d6146100d357806364a36f33146100e6575b5f80fd5b6100c9335f908152600260209081526040808320805460ff191690556001909152812055565b005b6100c9610198565b6100c96100e136600461038e565b6101e8565b6100c96100f436600461038e565b61023e565b6101186101073660046103fa565b60016020525f908152604090205481565b6040519081526020015b60405180910390f35b60035461013e906001600160a01b031681565b6040516001600160a01b039091168152602001610122565b6101786101643660046103fa565b60026020525f908152604090205460ff1681565b6040519015158152602001610122565b61011861031d565b6101185f5481565b6003546001600160a01b031633146101e35760405162461bcd60e51b81526020600482015260096024820152682737ba1037bbb732b960b91b60448201526064015b60405180910390fd5b5f8055565b6003546001600160a01b0316331461022e5760405162461bcd60e51b81526020600482015260096024820152682737ba1037bbb732b960b91b60448201526064016101da565b6102388183610427565b5f555050565b335f9081526002602052604090205460ff161561029d5760405162461bcd60e51b815260206004820152601060248201527f416c726561647920616e7377657265640000000000000000000000000000000060448201526064016101da565b5f80546040516020016102b291815260200190565b6040516020818303038152906040528051906020012083836040516102d8929190610445565b6040518091039020149050806102ee575f6102f1565b60015b335f9081526001602081815260408084209490945560029052919020805460ff19169091179055505050565b335f9081526002602052604081205460ff1661037b5760405162461bcd60e51b815260206004820152600d60248201527f4e6f207375626d697373696f6e0000000000000000000000000000000000000060448201526064016101da565b50335f9081526001602052604090205490565b5f806020838503121561039f575f80fd5b823567ffffffffffffffff808211156103b6575f80fd5b818501915085601f8301126103c9575f80fd5b8135818111156103d7575f80fd5b8660208285010111156103e8575f80fd5b60209290920196919550909350505050565b5f6020828403121561040a575f80fd5b81356001600160a01b0381168114610420575f80fd5b9392505050565b8035602083101561043f575f19602084900360031b1b165b92915050565b818382375f910190815291905056fea164736f6c6343000818000a",
  "linkReferences": {},
  "deployedLinkReferences": {}
}